{
  "_format": "hh-sol-artifact-1",
  "contractName": "Accounts",
  "sourceName": "contracts/Accounts.sol",
  "abi": [
    {
      "inputs": [],
      "stateMutability": "nonpayable",
      "type": "constructor"
    },
    {
      "inputs": [
        {
          "internalType": "address",
          "name": "owner",
          "type": "address"
        }
      ],
      "name": "OwnableInvalidOwner",
      "type": "error"
    },
    {
      "inputs": [
        {
          "internalType": "address",
          "name": "account",
          "type": "address"
        }
      ],
      "name": "OwnableUnauthorizedAccount",
      "type": "error"
    },
    {
      "inputs": [],
      "name": "ReentrancyGuardReentrantCall",
      "type": "error"
    },
    {
      "anonymous": false,
      "inputs": [
        {
          "indexed": true,
          "internalType": "bytes32",
          "name": "id",
          "type": "bytes32"
        },
        {
          "indexed": false,
          "internalType": "address",
          "name": "owner",
          "type": "address"
        }
      ],
      "name": "AccountCreated",
      "type": "event"
    },
    {
      "anonymous": false,
      "inputs": [
        {
          "indexed": true,
          "internalType": "bytes32",
          "name": "id",
          "type": "bytes32"
        },
        {
          "indexed": false,
          "internalType": "uint256",
          "name": "amount",
          "type": "uint256"
        }
      ],
      "name": "Deposit",
      "type": "event"
    },
    {
      "anonymous": false,
      "inputs": [
        {
          "indexed": true,
          "internalType": "bytes32",
          "name": "id",
          "type": "bytes32"
        },
        {
          "indexed": false,
          "internalType": "bool",
          "name": "status",
          "type": "bool"
        }
      ],
      "name": "Freeze",
      "type": "event"
    },
    {
      "anonymous": false,
      "inputs": [
        {
          "indexed": true,
          "internalType": "address",
          "name": "previousOwner",
          "type": "address"
        },
        {
          "indexed": true,
          "internalType": "address",
          "name": "newOwner",
          "type": "address"
        }
      ],
      "name": "OwnershipTransferred",
      "type": "event"
    },
    {
      "anonymous": false,
      "inputs": [
        {
          "indexed": true,
          "internalType": "bytes32",
          "name": "fromId",
          "type": "bytes32"
        },
        {
          "indexed": true,
          "internalType": "bytes32",
          "name": "toId",
          "type": "bytes32"
        },
        {
          "indexed": false,
          "internalType": "uint256",
          "name": "amount",
          "type": "uint256"
        }
      ],
      "name": "Transfer",
      "type": "event"
    },
    {
      "anonymous": false,
      "inputs": [
        {
          "indexed": true,
          "internalType": "bytes32",
          "name": "id",
          "type": "bytes32"
        },
        {
          "indexed": false,
          "internalType": "uint256",
          "name": "amount",
          "type": "uint256"
        }
      ],
      "name": "Withdraw",
      "type": "event"
    },
    {
      "inputs": [
        {
          "internalType": "bytes32",
          "name": "",
          "type": "bytes32"
        }
      ],
      "name": "accounts",
      "outputs": [
        {
          "internalType": "address",
          "name": "owner",
          "type": "address"
        },
        {
          "internalType": "uint256",
          "name": "balance",
          "type": "uint256"
        },
        {
          "internalType": "bool",
          "name": "frozen",
          "type": "bool"
        }
      ],
      "stateMutability": "view",
      "type": "function"
    },
    {
      "inputs": [
        {
          "internalType": "bytes32",
          "name": "id",
          "type": "bytes32"
        }
      ],
      "name": "checkBalance",
      "outputs": [
        {
          "internalType": "uint256",
          "name": "",
          "type": "uint256"
        }
      ],
      "stateMutability": "view",
      "type": "function"
    },
    {
      "inputs": [
        {
          "internalType": "bytes32",
          "name": "id",
          "type": "bytes32"
        },
        {
          "internalType": "address",
          "name": "ownerAddr",
          "type": "address"
        }
      ],
      "name": "createAccount",
      "outputs": [],
      "stateMutability": "nonpayable",
      "type": "function"
    },
    {
      "inputs": [
        {
          "internalType": "bytes32",
          "name": "id",
          "type": "bytes32"
        }
      ],
      "name": "deposit",
      "outputs": [],
      "stateMutability": "payable",
      "type": "function"
    },
    {
      "inputs": [
        {
          "internalType": "bytes32",
          "name": "id",
          "type": "bytes32"
        },
        {
          "internalType": "bool",
          "name": "status",
          "type": "bool"
        }
      ],
      "name": "freeze",
      "outputs": [],
      "stateMutability": "nonpayable",
      "type": "function"
    },
    {
      "inputs": [],
      "name": "owner",
      "outputs": [
        {
          "internalType": "address",
          "name": "",
          "type": "address"
        }
      ],
      "stateMutability": "view",
      "type": "function"
    },
    {
      "inputs": [],
      "name": "renounceOwnership",
      "outputs": [],
      "stateMutability": "nonpayable",
      "type": "function"
    },
    {
      "inputs": [
        {
          "internalType": "bytes32",
          "name": "fromId",
          "type": "bytes32"
        },
        {
          "internalType": "bytes32",
          "name": "toId",
          "type": "bytes32"
        },
        {
          "internalType": "uint256",
          "name": "amount",
          "type": "uint256"
        }
      ],
      "name": "transfer",
      "outputs": [],
      "stateMutability": "nonpayable",
      "type": "function"
    },
    {
      "inputs": [
        {
          "internalType": "address",
          "name": "newOwner",
          "type": "address"
        }
      ],
      "name": "transferOwnership",
      "outputs": [],
      "stateMutability": "nonpayable",
      "type": "function"
    },
    {
      "inputs": [
        {
          "internalType": "bytes32",
          "name": "id",
          "type": "bytes32"
        },
        {
          "internalType": "uint256",
          "name": "amount",
          "type": "uint256"
        }
      ],
      "name": "withdraw",
      "outputs": [],
      "stateMutability": "nonpayable",
      "type": "function"
    }
  ],
  "bytecode": "0x608060405234801561001057600080fd5b5033600073ffffffffffffffffffffffffffffffffffffffff168173ffffffffffffffffffffffffffffffffffffffff16036100845760006040517f1e4fbdf700000000000000000000000000000000000000000000000000000000815260040161007b91906101a5565b60405180910390fd5b610093816100a060201b60201c565b50600180819055506101c0565b60008060009054906101000a900473ffffffffffffffffffffffffffffffffffffffff169050816000806101000a81548173ffffffffffffffffffffffffffffffffffffffff021916908373ffffffffffffffffffffffffffffffffffffffff1602179055508173ffffffffffffffffffffffffffffffffffffffff168173ffffffffffffffffffffffffffffffffffffffff167f8be0079c531659141344cd1fd0a4f28419497f9722a3daafe3b4186f6b6457e060405160405180910390a35050565b600073ffffffffffffffffffffffffffffffffffffffff82169050919050565b600061018f82610164565b9050919050565b61019f81610184565b82525050565b60006020820190506101ba6000830184610196565b92915050565b61125180620001d06000396000f3fe6080604052600436106100915760003560e01c8063b214faa511610059578063b214faa514610153578063bc529c431461016f578063bf29ec2f146101ae578063f2fde38b146101eb578063fc7785c71461021457610091565b8063040cf02014610096578063715018a6146100bf578063721892ec146100d65780638da5cb5b146100ff578063ae9f75e31461012a575b600080fd5b3480156100a257600080fd5b506100bd60048036038101906100b89190610c9f565b61023d565b005b3480156100cb57600080fd5b506100d461042e565b005b3480156100e257600080fd5b506100fd60048036038101906100f89190610d17565b610442565b005b34801561010b57600080fd5b506101146104b4565b6040516101219190610d98565b60405180910390f35b34801561013657600080fd5b50610151600480360381019061014c9190610db3565b6104dd565b005b61016d60048036038101906101689190610e06565b61070e565b005b34801561017b57600080fd5b5061019660048036038101906101919190610e06565b6107ea565b6040516101a593929190610e51565b60405180910390f35b3480156101ba57600080fd5b506101d560048036038101906101d09190610e06565b610841565b6040516101e29190610e88565b60405180910390f35b3480156101f757600080fd5b50610212600480360381019061020d9190610ecf565b610861565b005b34801561022057600080fd5b5061023b60048036038101906102369190610efc565b6108e7565b005b610245610a8c565b60006002600084815260200190815260200160002090508060000160009054906101000a900473ffffffffffffffffffffffffffffffffffffffff1673ffffffffffffffffffffffffffffffffffffffff163373ffffffffffffffffffffffffffffffffffffffff16146102ee576040517f08c379a00000000000000000000000000000000000000000000000000000000081526004016102e590610f99565b60405180910390fd5b8060020160009054906101000a900460ff1615610340576040517f08c379a000000000000000000000000000000000000000000000000000000000815260040161033790611005565b60405180910390fd5b8181600101541015610387576040517f08c379a000000000000000000000000000000000000000000000000000000000815260040161037e90611071565b60405180910390fd5b8181600101600082825461039b91906110c0565b925050819055503373ffffffffffffffffffffffffffffffffffffffff166108fc839081150290604051600060405180830381858888f193505050501580156103e8573d6000803e3d6000fd5b50827f4591ca0897d0d8e83f7153dfe0b2912125672084ab8d84be59ee13240a1778bc836040516104199190610e88565b60405180910390a25061042a610ad2565b5050565b610436610adb565b6104406000610b62565b565b61044a610adb565b806002600084815260200190815260200160002060020160006101000a81548160ff021916908315150217905550817f5434f27470cc29e1707ae159bad4b959f4dd31e41c33e5e10890867311eab060826040516104a891906110f4565b60405180910390a25050565b60008060009054906101000a900473ffffffffffffffffffffffffffffffffffffffff16905090565b6104e5610a8c565b600060026000858152602001908152602001600020905060006002600085815260200190815260200160002090508160000160009054906101000a900473ffffffffffffffffffffffffffffffffffffffff1673ffffffffffffffffffffffffffffffffffffffff163373ffffffffffffffffffffffffffffffffffffffff16146105a5576040517f08c379a000000000000000000000000000000000000000000000000000000000815260040161059c90610f99565b60405180910390fd5b8160020160009054906101000a900460ff16156105f7576040517f08c379a00000000000000000000000000000000000000000000000000000000081526004016105ee90611005565b60405180910390fd5b8060020160009054906101000a900460ff1615610649576040517f08c379a00000000000000000000000000000000000000000000000000000000081526004016106409061115b565b60405180910390fd5b8282600101541015610690576040517f08c379a000000000000000000000000000000000000000000000000000000000815260040161068790611071565b60405180910390fd5b828260010160008282546106a491906110c0565b92505081905550828160010160008282546106bf919061117b565b9250508190555083857fbc7a322f72742a0c810e1f76615f57ed3a5bbfcbd956d3d451b3158968faace9856040516106f79190610e88565b60405180910390a35050610709610ad2565b505050565b610716610a8c565b6002600082815260200190815260200160002060020160009054906101000a900460ff161561077a576040517f08c379a000000000000000000000000000000000000000000000000000000000815260040161077190611005565b60405180910390fd5b346002600083815260200190815260200160002060010160008282546107a0919061117b565b92505081905550807f98e783c3864bbf744a057ef605a2a61701c3b62b5ed68b3745b99094497daf1f346040516107d79190610e88565b60405180910390a26107e7610ad2565b50565b60026020528060005260406000206000915090508060000160009054906101000a900473ffffffffffffffffffffffffffffffffffffffff16908060010154908060020160009054906101000a900460ff16905083565b600060026000838152602001908152602001600020600101549050919050565b610869610adb565b600073ffffffffffffffffffffffffffffffffffffffff168173ffffffffffffffffffffffffffffffffffffffff16036108db5760006040517f1e4fbdf70000000000000000000000000000000000000000000000000000000081526004016108d29190610d98565b60405180910390fd5b6108e481610b62565b50565b6108ef610adb565b600073ffffffffffffffffffffffffffffffffffffffff166002600084815260200190815260200160002060000160009054906101000a900473ffffffffffffffffffffffffffffffffffffffff1673ffffffffffffffffffffffffffffffffffffffff1614610994576040517f08c379a000000000000000000000000000000000000000000000000000000000815260040161098b906111fb565b60405180910390fd5b60405180606001604052808273ffffffffffffffffffffffffffffffffffffffff16815260200160008152602001600015158152506002600084815260200190815260200160002060008201518160000160006101000a81548173ffffffffffffffffffffffffffffffffffffffff021916908373ffffffffffffffffffffffffffffffffffffffff1602179055506020820151816001015560408201518160020160006101000a81548160ff021916908315150217905550905050817fd61caa23c7e60d69f689a83965592bc26f0dee75c1e247864bb07bbb6fdafe4782604051610a809190610d98565b60405180910390a25050565b600260015403610ac8576040517f3ee5aeb500000000000000000000000000000000000000000000000000000000815260040160405180910390fd5b6002600181905550565b60018081905550565b610ae3610c26565b73ffffffffffffffffffffffffffffffffffffffff16610b016104b4565b73ffffffffffffffffffffffffffffffffffffffff1614610b6057610b24610c26565b6040517f118cdaa7000000000000000000000000000000000000000000000000000000008152600401610b579190610d98565b60405180910390fd5b565b60008060009054906101000a900473ffffffffffffffffffffffffffffffffffffffff169050816000806101000a81548173ffffffffffffffffffffffffffffffffffffffff021916908373ffffffffffffffffffffffffffffffffffffffff1602179055508173ffffffffffffffffffffffffffffffffffffffff168173ffffffffffffffffffffffffffffffffffffffff167f8be0079c531659141344cd1fd0a4f28419497f9722a3daafe3b4186f6b6457e060405160405180910390a35050565b600033905090565b600080fd5b6000819050919050565b610c4681610c33565b8114610c5157600080fd5b50565b600081359050610c6381610c3d565b92915050565b6000819050919050565b610c7c81610c69565b8114610c8757600080fd5b50565b600081359050610c9981610c73565b92915050565b60008060408385031215610cb657610cb5610c2e565b5b6000610cc485828601610c54565b9250506020610cd585828601610c8a565b9150509250929050565b60008115159050919050565b610cf481610cdf565b8114610cff57600080fd5b50565b600081359050610d1181610ceb565b92915050565b60008060408385031215610d2e57610d2d610c2e565b5b6000610d3c85828601610c54565b9250506020610d4d85828601610d02565b9150509250929050565b600073ffffffffffffffffffffffffffffffffffffffff82169050919050565b6000610d8282610d57565b9050919050565b610d9281610d77565b82525050565b6000602082019050610dad6000830184610d89565b92915050565b600080600060608486031215610dcc57610dcb610c2e565b5b6000610dda86828701610c54565b9350506020610deb86828701610c54565b9250506040610dfc86828701610c8a565b9150509250925092565b600060208284031215610e1c57610e1b610c2e565b5b6000610e2a84828501610c54565b91505092915050565b610e3c81610c69565b82525050565b610e4b81610cdf565b82525050565b6000606082019050610e666000830186610d89565b610e736020830185610e33565b610e806040830184610e42565b949350505050565b6000602082019050610e9d6000830184610e33565b92915050565b610eac81610d77565b8114610eb757600080fd5b50565b600081359050610ec981610ea3565b92915050565b600060208284031215610ee557610ee4610c2e565b5b6000610ef384828501610eba565b91505092915050565b60008060408385031215610f1357610f12610c2e565b5b6000610f2185828601610c54565b9250506020610f3285828601610eba565b9150509250929050565b600082825260208201905092915050565b7f4e6f74206f776e65720000000000000000000000000000000000000000000000600082015250565b6000610f83600983610f3c565b9150610f8e82610f4d565b602082019050919050565b60006020820190508181036000830152610fb281610f76565b9050919050565b7f46726f7a656e0000000000000000000000000000000000000000000000000000600082015250565b6000610fef600683610f3c565b9150610ffa82610fb9565b602082019050919050565b6000602082019050818103600083015261101e81610fe2565b9050919050565b7f496e73756666696369656e740000000000000000000000000000000000000000600082015250565b600061105b600c83610f3c565b915061106682611025565b602082019050919050565b6000602082019050818103600083015261108a8161104e565b9050919050565b7f4e487b7100000000000000000000000000000000000000000000000000000000600052601160045260246000fd5b60006110cb82610c69565b91506110d683610c69565b92508282039050818111156110ee576110ed611091565b5b92915050565b60006020820190506111096000830184610e42565b92915050565b7f52656365697665722066726f7a656e0000000000000000000000000000000000600082015250565b6000611145600f83610f3c565b91506111508261110f565b602082019050919050565b6000602082019050818103600083015261117481611138565b9050919050565b600061118682610c69565b915061119183610c69565b92508282019050808211156111a9576111a8611091565b5b92915050565b7f416c726561647920657869737473000000000000000000000000000000000000600082015250565b60006111e5600e83610f3c565b91506111f0826111af565b602082019050919050565b60006020820190508181036000830152611214816111d8565b905091905056fea2646970667358221220244eeb8efb4468de1f79a8ebaf0d8ff328ea05496540cd22b807e19acc2dc42464736f6c63430008140033",
  "linkReferences": {},
  "deployedLinkReferences": {}
}