{
  "_format": "hh-sol-artifact-1",
  "contractName": "Audit",
  "sourceName": "contracts/Audit.sol",
  "abi": [
    {
      "inputs": [],
      "stateMutability": "nonpayable",
      "type": "constructor"
    },
    {
      "inputs": [
        {
          "internalType": "address",
          "name": "owner",
          "type": "address"
        }
      ],
      "name": "OwnableInvalidOwner",
      "type": "error"
    },
    {
      "inputs": [
        {
          "internalType": "address",
          "name": "account",
          "type": "address"
        }
      ],
      "name": "OwnableUnauthorizedAccount",
      "type": "error"
    },
    {
      "anonymous": false,
      "inputs": [
        {
          "indexed": false,
          "internalType": "string",
          "name": "action",
          "type": "string"
        },
        {
          "indexed": false,
          "internalType": "bytes32",
          "name": "accountId",
          "type": "bytes32"
        },
        {
          "indexed": false,
          "internalType": "uint256",
          "name": "amount",
          "type": "uint256"
        },
        {
          "indexed": false,
          "internalType": "uint256",
          "name": "timestamp",
          "type": "uint256"
        }
      ],
      "name": "AuditLog",
      "type": "event"
    },
    {
      "anonymous": false,
      "inputs": [
        {
          "indexed": true,
          "internalType": "address",
          "name": "previousOwner",
          "type": "address"
        },
        {
          "indexed": true,
          "internalType": "address",
          "name": "newOwner",
          "type": "address"
        }
      ],
      "name": "OwnershipTransferred",
      "type": "event"
    },
    {
      "inputs": [
        {
          "internalType": "string",
          "name": "action",
          "type": "string"
        },
        {
          "internalType": "bytes32",
          "name": "accountId",
          "type": "bytes32"
        },
        {
          "internalType": "uint256",
          "name": "amount",
          "type": "uint256"
        }
      ],
      "name": "logAction",
      "outputs": [],
      "stateMutability": "nonpayable",
      "type": "function"
    },
    {
      "inputs": [],
      "name": "owner",
      "outputs": [
        {
          "internalType": "address",
          "name": "",
          "type": "address"
        }
      ],
      "stateMutability": "view",
      "type": "function"
    },
    {
      "inputs": [],
      "name": "renounceOwnership",
      "outputs": [],
      "stateMutability": "nonpayable",
      "type": "function"
    },
    {
      "inputs": [
        {
          "internalType": "address",
          "name": "newOwner",
          "type": "address"
        }
      ],
      "name": "transferOwnership",
      "outputs": [],
      "stateMutability": "nonpayable",
      "type": "function"
    }
  ],
  "bytecode": "0x608060405234801561001057600080fd5b5033600073ffffffffffffffffffffffffffffffffffffffff168173ffffffffffffffffffffffffffffffffffffffff16036100845760006040517f1e4fbdf700000000000000000000000000000000000000000000000000000000815260040161007b919061019e565b60405180910390fd5b6100938161009960201b60201c565b506101b9565b60008060009054906101000a900473ffffffffffffffffffffffffffffffffffffffff169050816000806101000a81548173ffffffffffffffffffffffffffffffffffffffff021916908373ffffffffffffffffffffffffffffffffffffffff1602179055508173ffffffffffffffffffffffffffffffffffffffff168173ffffffffffffffffffffffffffffffffffffffff167f8be0079c531659141344cd1fd0a4f28419497f9722a3daafe3b4186f6b6457e060405160405180910390a35050565b600073ffffffffffffffffffffffffffffffffffffffff82169050919050565b60006101888261015d565b9050919050565b6101988161017d565b82525050565b60006020820190506101b3600083018461018f565b92915050565b61071a806101c86000396000f3fe608060405234801561001057600080fd5b506004361061004c5760003560e01c80636518ac1114610051578063715018a61461006d5780638da5cb5b14610077578063f2fde38b14610095575b600080fd5b61006b600480360381019061006691906104d7565b6100b1565b005b6100756100fb565b005b61007f61010f565b60405161008c9190610587565b60405180910390f35b6100af60048036038101906100aa91906105ce565b610138565b005b6100b96101be565b7fdd325d33fd26897f271f5eeb5b3d2e44a2d5fb1d672fc246ad92d5d7078862a7838383426040516100ee9493929190610698565b60405180910390a1505050565b6101036101be565b61010d6000610245565b565b60008060009054906101000a900473ffffffffffffffffffffffffffffffffffffffff16905090565b6101406101be565b600073ffffffffffffffffffffffffffffffffffffffff168173ffffffffffffffffffffffffffffffffffffffff16036101b25760006040517f1e4fbdf70000000000000000000000000000000000000000000000000000000081526004016101a99190610587565b60405180910390fd5b6101bb81610245565b50565b6101c6610309565b73ffffffffffffffffffffffffffffffffffffffff166101e461010f565b73ffffffffffffffffffffffffffffffffffffffff161461024357610207610309565b6040517f118cdaa700000000000000000000000000000000000000000000000000000000815260040161023a9190610587565b60405180910390fd5b565b60008060009054906101000a900473ffffffffffffffffffffffffffffffffffffffff169050816000806101000a81548173ffffffffffffffffffffffffffffffffffffffff021916908373ffffffffffffffffffffffffffffffffffffffff1602179055508173ffffffffffffffffffffffffffffffffffffffff168173ffffffffffffffffffffffffffffffffffffffff167f8be0079c531659141344cd1fd0a4f28419497f9722a3daafe3b4186f6b6457e060405160405180910390a35050565b600033905090565b6000604051905090565b600080fd5b600080fd5b600080fd5b600080fd5b6000601f19601f8301169050919050565b7f4e487b7100000000000000000000000000000000000000000000000000000000600052604160045260246000fd5b6103788261032f565b810181811067ffffffffffffffff8211171561039757610396610340565b5b80604052505050565b60006103aa610311565b90506103b6828261036f565b919050565b600067ffffffffffffffff8211156103d6576103d5610340565b5b6103df8261032f565b9050602081019050919050565b82818337600083830152505050565b600061040e610409846103bb565b6103a0565b90508281526020810184848401111561042a5761042961032a565b5b6104358482856103ec565b509392505050565b600082601f83011261045257610451610325565b5b81356104628482602086016103fb565b91505092915050565b6000819050919050565b61047e8161046b565b811461048957600080fd5b50565b60008135905061049b81610475565b92915050565b6000819050919050565b6104b4816104a1565b81146104bf57600080fd5b50565b6000813590506104d1816104ab565b92915050565b6000806000606084860312156104f0576104ef61031b565b5b600084013567ffffffffffffffff81111561050e5761050d610320565b5b61051a8682870161043d565b935050602061052b8682870161048c565b925050604061053c868287016104c2565b9150509250925092565b600073ffffffffffffffffffffffffffffffffffffffff82169050919050565b600061057182610546565b9050919050565b61058181610566565b82525050565b600060208201905061059c6000830184610578565b92915050565b6105ab81610566565b81146105b657600080fd5b50565b6000813590506105c8816105a2565b92915050565b6000602082840312156105e4576105e361031b565b5b60006105f2848285016105b9565b91505092915050565b600081519050919050565b600082825260208201905092915050565b60005b8381101561063557808201518184015260208101905061061a565b60008484015250505050565b600061064c826105fb565b6106568185610606565b9350610666818560208601610617565b61066f8161032f565b840191505092915050565b6106838161046b565b82525050565b610692816104a1565b82525050565b600060808201905081810360008301526106b28187610641565b90506106c1602083018661067a565b6106ce6040830185610689565b6106db6060830184610689565b9594505050505056fea26469706673582212208e44b59eab04ea6deb0f6e09ddbe5855c61bc85393633c285582732850f7a10764736f6c63430008140033",
  "linkReferences": {},
  "deployedLinkReferences": {}
}