{
  "_format": "hh-sol-artifact-1",
  "contractName": "Cards",
  "sourceName": "contracts/Cards.sol",
  "abi": [
    {
      "inputs": [],
      "stateMutability": "nonpayable",
      "type": "constructor"
    },
    {
      "inputs": [
        {
          "internalType": "address",
          "name": "owner",
          "type": "address"
        }
      ],
      "name": "OwnableInvalidOwner",
      "type": "error"
    },
    {
      "inputs": [
        {
          "internalType": "address",
          "name": "account",
          "type": "address"
        }
      ],
      "name": "OwnableUnauthorizedAccount",
      "type": "error"
    },
    {
      "anonymous": false,
      "inputs": [
        {
          "indexed": true,
          "internalType": "uint256",
          "name": "cardId",
          "type": "uint256"
        }
      ],
      "name": "CardBlocked",
      "type": "event"
    },
    {
      "anonymous": false,
      "inputs": [
        {
          "indexed": true,
          "internalType": "uint256",
          "name": "cardId",
          "type": "uint256"
        },
        {
          "indexed": false,
          "internalType": "uint256",
          "name": "amount",
          "type": "uint256"
        }
      ],
      "name": "CardCharged",
      "type": "event"
    },
    {
      "anonymous": false,
      "inputs": [
        {
          "indexed": true,
          "internalType": "uint256",
          "name": "cardId",
          "type": "uint256"
        },
        {
          "indexed": false,
          "internalType": "bytes32",
          "name": "accountId",
          "type": "bytes32"
        }
      ],
      "name": "CardIssued",
      "type": "event"
    },
    {
      "anonymous": false,
      "inputs": [
        {
          "indexed": true,
          "internalType": "address",
          "name": "previousOwner",
          "type": "address"
        },
        {
          "indexed": true,
          "internalType": "address",
          "name": "newOwner",
          "type": "address"
        }
      ],
      "name": "OwnershipTransferred",
      "type": "event"
    },
    {
      "inputs": [
        {
          "internalType": "uint256",
          "name": "cardId",
          "type": "uint256"
        }
      ],
      "name": "blockCard",
      "outputs": [],
      "stateMutability": "nonpayable",
      "type": "function"
    },
    {
      "inputs": [],
      "name": "cardCounter",
      "outputs": [
        {
          "internalType": "uint256",
          "name": "",
          "type": "uint256"
        }
      ],
      "stateMutability": "view",
      "type": "function"
    },
    {
      "inputs": [
        {
          "internalType": "uint256",
          "name": "",
          "type": "uint256"
        }
      ],
      "name": "cards",
      "outputs": [
        {
          "internalType": "bytes32",
          "name": "accountId",
          "type": "bytes32"
        },
        {
          "internalType": "bool",
          "name": "active",
          "type": "bool"
        }
      ],
      "stateMutability": "view",
      "type": "function"
    },
    {
      "inputs": [
        {
          "internalType": "uint256",
          "name": "cardId",
          "type": "uint256"
        },
        {
          "internalType": "uint256",
          "name": "amount",
          "type": "uint256"
        }
      ],
      "name": "chargeCard",
      "outputs": [],
      "stateMutability": "nonpayable",
      "type": "function"
    },
    {
      "inputs": [
        {
          "internalType": "bytes32",
          "name": "accountId",
          "type": "bytes32"
        }
      ],
      "name": "issueCard",
      "outputs": [
        {
          "internalType": "uint256",
          "name": "",
          "type": "uint256"
        }
      ],
      "stateMutability": "nonpayable",
      "type": "function"
    },
    {
      "inputs": [],
      "name": "owner",
      "outputs": [
        {
          "internalType": "address",
          "name": "",
          "type": "address"
        }
      ],
      "stateMutability": "view",
      "type": "function"
    },
    {
      "inputs": [],
      "name": "renounceOwnership",
      "outputs": [],
      "stateMutability": "nonpayable",
      "type": "function"
    },
    {
      "inputs": [
        {
          "internalType": "address",
          "name": "accountsAddr",
          "type": "address"
        }
      ],
      "name": "setAccountsContract",
      "outputs": [],
      "stateMutability": "nonpayable",
      "type": "function"
    },
    {
      "inputs": [
        {
          "internalType": "address",
          "name": "newOwner",
          "type": "address"
        }
      ],
      "name": "transferOwnership",
      "outputs": [],
      "stateMutability": "nonpayable",
      "type": "function"
    }
  ],
  "bytecode": "0x608060405234801561001057600080fd5b5033600073ffffffffffffffffffffffffffffffffffffffff168173ffffffffffffffffffffffffffffffffffffffff16036100845760006040517f1e4fbdf700000000000000000000000000000000000000000000000000000000815260040161007b919061019e565b60405180910390fd5b6100938161009960201b60201c565b506101b9565b60008060009054906101000a900473ffffffffffffffffffffffffffffffffffffffff169050816000806101000a81548173ffffffffffffffffffffffffffffffffffffffff021916908373ffffffffffffffffffffffffffffffffffffffff1602179055508173ffffffffffffffffffffffffffffffffffffffff168173ffffffffffffffffffffffffffffffffffffffff167f8be0079c531659141344cd1fd0a4f28419497f9722a3daafe3b4186f6b6457e060405160405180910390a35050565b600073ffffffffffffffffffffffffffffffffffffffff82169050919050565b60006101888261015d565b9050919050565b6101988161017d565b82525050565b60006020820190506101b3600083018461018f565b92915050565b610a66806101c86000396000f3fe608060405234801561001057600080fd5b50600436106100935760003560e01c80638dc10768116100665780638dc107681461010c57806391e15f071461013d578063e3f6af6d14610159578063f2fde38b14610175578063f51dcc7a1461019157610093565b8063057bce901461009857806342edceac146100c8578063715018a6146100e45780638da5cb5b146100ee575b600080fd5b6100b260048036038101906100ad91906106f6565b6101af565b6040516100bf919061073c565b60405180910390f35b6100e260048036038101906100dd91906107b5565b61026f565b005b6100ec6102bb565b005b6100f66102cf565b60405161010391906107f1565b60405180910390f35b61012660048036038101906101219190610838565b6102f8565b60405161013492919061088f565b60405180910390f35b610157600480360381019061015291906108b8565b610329565b005b610173600480360381019061016e9190610838565b610475565b005b61018f600480360381019061018a91906107b5565b6104dc565b005b610199610562565b6040516101a6919061073c565b60405180910390f35b60006101b9610568565b600360008154809291906101cc90610927565b91905055506040518060400160405280838152602001600115158152506002600060035481526020019081526020016000206000820151816000015560208201518160010160006101000a81548160ff0219169083151502179055509050506003547fdce1fd700bf585269f47c2717d29519633f02fd2c5fa715a5b3a899fd9b9ec668360405161025d919061096f565b60405180910390a26003549050919050565b610277610568565b80600160006101000a81548173ffffffffffffffffffffffffffffffffffffffff021916908373ffffffffffffffffffffffffffffffffffffffff16021790555050565b6102c3610568565b6102cd60006105ef565b565b60008060009054906101000a900473ffffffffffffffffffffffffffffffffffffffff16905090565b60026020528060005260406000206000915090508060000154908060010160009054906101000a900460ff16905082565b610331610568565b6002600083815260200190815260200160002060010160009054906101000a900460ff16610394576040517f08c379a000000000000000000000000000000000000000000000000000000000815260040161038b906109e7565b60405180910390fd5b600160009054906101000a900473ffffffffffffffffffffffffffffffffffffffff1673ffffffffffffffffffffffffffffffffffffffff1663040cf0206002600085815260200190815260200160002060000154836040518363ffffffff1660e01b8152600401610407929190610a07565b600060405180830381600087803b15801561042157600080fd5b505af1158015610435573d6000803e3d6000fd5b50505050817f7208a8c4ebb6616895991be226f121d05d58053c23f94c418a76e90c2a75c3da82604051610469919061073c565b60405180910390a25050565b61047d610568565b60006002600083815260200190815260200160002060010160006101000a81548160ff021916908315150217905550807fd98ac896a0dcca7458065f46bd8c1dcab1145b50ac988152893dabeceaa271c760405160405180910390a250565b6104e4610568565b600073ffffffffffffffffffffffffffffffffffffffff168173ffffffffffffffffffffffffffffffffffffffff16036105565760006040517f1e4fbdf700000000000000000000000000000000000000000000000000000000815260040161054d91906107f1565b60405180910390fd5b61055f816105ef565b50565b60035481565b6105706106b3565b73ffffffffffffffffffffffffffffffffffffffff1661058e6102cf565b73ffffffffffffffffffffffffffffffffffffffff16146105ed576105b16106b3565b6040517f118cdaa70000000000000000000000000000000000000000000000000000000081526004016105e491906107f1565b60405180910390fd5b565b60008060009054906101000a900473ffffffffffffffffffffffffffffffffffffffff169050816000806101000a81548173ffffffffffffffffffffffffffffffffffffffff021916908373ffffffffffffffffffffffffffffffffffffffff1602179055508173ffffffffffffffffffffffffffffffffffffffff168173ffffffffffffffffffffffffffffffffffffffff167f8be0079c531659141344cd1fd0a4f28419497f9722a3daafe3b4186f6b6457e060405160405180910390a35050565b600033905090565b600080fd5b6000819050919050565b6106d3816106c0565b81146106de57600080fd5b50565b6000813590506106f0816106ca565b92915050565b60006020828403121561070c5761070b6106bb565b5b600061071a848285016106e1565b91505092915050565b6000819050919050565b61073681610723565b82525050565b6000602082019050610751600083018461072d565b92915050565b600073ffffffffffffffffffffffffffffffffffffffff82169050919050565b600061078282610757565b9050919050565b61079281610777565b811461079d57600080fd5b50565b6000813590506107af81610789565b92915050565b6000602082840312156107cb576107ca6106bb565b5b60006107d9848285016107a0565b91505092915050565b6107eb81610777565b82525050565b600060208201905061080660008301846107e2565b92915050565b61081581610723565b811461082057600080fd5b50565b6000813590506108328161080c565b92915050565b60006020828403121561084e5761084d6106bb565b5b600061085c84828501610823565b91505092915050565b61086e816106c0565b82525050565b60008115159050919050565b61088981610874565b82525050565b60006040820190506108a46000830185610865565b6108b16020830184610880565b9392505050565b600080604083850312156108cf576108ce6106bb565b5b60006108dd85828601610823565b92505060206108ee85828601610823565b9150509250929050565b7f4e487b7100000000000000000000000000000000000000000000000000000000600052601160045260246000fd5b600061093282610723565b91507fffffffffffffffffffffffffffffffffffffffffffffffffffffffffffffffff8203610964576109636108f8565b5b600182019050919050565b60006020820190506109846000830184610865565b92915050565b600082825260208201905092915050565b7f496e616374697665000000000000000000000000000000000000000000000000600082015250565b60006109d160088361098a565b91506109dc8261099b565b602082019050919050565b60006020820190508181036000830152610a00816109c4565b9050919050565b6000604082019050610a1c6000830185610865565b610a29602083018461072d565b939250505056fea26469706673582212206e8e2dc3531f1e1363d91296409b1fd18b0b5d74f89c40dab3b434c0d1cdf19764736f6c63430008140033",
  "linkReferences": {},
  "deployedLinkReferences": {}
}