{
  "_format": "hh-sol-artifact-1",
  "contractName": "Loans",
  "sourceName": "contracts/Loans.sol",
  "abi": [
    {
      "inputs": [],
      "stateMutability": "nonpayable",
      "type": "constructor"
    },
    {
      "inputs": [
        {
          "internalType": "address",
          "name": "owner",
          "type": "address"
        }
      ],
      "name": "OwnableInvalidOwner",
      "type": "error"
    },
    {
      "inputs": [
        {
          "internalType": "address",
          "name": "account",
          "type": "address"
        }
      ],
      "name": "OwnableUnauthorizedAccount",
      "type": "error"
    },
    {
      "anonymous": false,
      "inputs": [
        {
          "indexed": true,
          "internalType": "uint256",
          "name": "loanId",
          "type": "uint256"
        },
        {
          "indexed": false,
          "internalType": "bytes32",
          "name": "accountId",
          "type": "bytes32"
        }
      ],
      "name": "LoanApplied",
      "type": "event"
    },
    {
      "anonymous": false,
      "inputs": [
        {
          "indexed": true,
          "internalType": "uint256",
          "name": "loanId",
          "type": "uint256"
        }
      ],
      "name": "LoanApproved",
      "type": "event"
    },
    {
      "anonymous": false,
      "inputs": [
        {
          "indexed": true,
          "internalType": "uint256",
          "name": "loanId",
          "type": "uint256"
        }
      ],
      "name": "LoanRepaid",
      "type": "event"
    },
    {
      "anonymous": false,
      "inputs": [
        {
          "indexed": true,
          "internalType": "address",
          "name": "previousOwner",
          "type": "address"
        },
        {
          "indexed": true,
          "internalType": "address",
          "name": "newOwner",
          "type": "address"
        }
      ],
      "name": "OwnershipTransferred",
      "type": "event"
    },
    {
      "inputs": [
        {
          "internalType": "bytes32",
          "name": "id",
          "type": "bytes32"
        },
        {
          "internalType": "uint256",
          "name": "principal",
          "type": "uint256"
        },
        {
          "internalType": "uint256",
          "name": "interest",
          "type": "uint256"
        }
      ],
      "name": "applyLoan",
      "outputs": [
        {
          "internalType": "uint256",
          "name": "",
          "type": "uint256"
        }
      ],
      "stateMutability": "nonpayable",
      "type": "function"
    },
    {
      "inputs": [
        {
          "internalType": "uint256",
          "name": "loanId",
          "type": "uint256"
        }
      ],
      "name": "approveLoan",
      "outputs": [],
      "stateMutability": "nonpayable",
      "type": "function"
    },
    {
      "inputs": [],
      "name": "loanCounter",
      "outputs": [
        {
          "internalType": "uint256",
          "name": "",
          "type": "uint256"
        }
      ],
      "stateMutability": "view",
      "type": "function"
    },
    {
      "inputs": [
        {
          "internalType": "uint256",
          "name": "",
          "type": "uint256"
        }
      ],
      "name": "loans",
      "outputs": [
        {
          "internalType": "bytes32",
          "name": "accountId",
          "type": "bytes32"
        },
        {
          "internalType": "uint256",
          "name": "principal",
          "type": "uint256"
        },
        {
          "internalType": "uint256",
          "name": "interest",
          "type": "uint256"
        },
        {
          "internalType": "bool",
          "name": "approved",
          "type": "bool"
        },
        {
          "internalType": "bool",
          "name": "repaid",
          "type": "bool"
        }
      ],
      "stateMutability": "view",
      "type": "function"
    },
    {
      "inputs": [],
      "name": "owner",
      "outputs": [
        {
          "internalType": "address",
          "name": "",
          "type": "address"
        }
      ],
      "stateMutability": "view",
      "type": "function"
    },
    {
      "inputs": [],
      "name": "renounceOwnership",
      "outputs": [],
      "stateMutability": "nonpayable",
      "type": "function"
    },
    {
      "inputs": [
        {
          "internalType": "uint256",
          "name": "loanId",
          "type": "uint256"
        }
      ],
      "name": "repayLoan",
      "outputs": [],
      "stateMutability": "payable",
      "type": "function"
    },
    {
      "inputs": [
        {
          "internalType": "address",
          "name": "accountsAddr",
          "type": "address"
        }
      ],
      "name": "setAccountsContract",
      "outputs": [],
      "stateMutability": "nonpayable",
      "type": "function"
    },
    {
      "inputs": [
        {
          "internalType": "address",
          "name": "newOwner",
          "type": "address"
        }
      ],
      "name": "transferOwnership",
      "outputs": [],
      "stateMutability": "nonpayable",
      "type": "function"
    }
  ],
  "bytecode": "0x608060405234801561001057600080fd5b5033600073ffffffffffffffffffffffffffffffffffffffff168173ffffffffffffffffffffffffffffffffffffffff16036100845760006040517f1e4fbdf700000000000000000000000000000000000000000000000000000000815260040161007b919061019e565b60405180910390fd5b6100938161009960201b60201c565b506101b9565b60008060009054906101000a900473ffffffffffffffffffffffffffffffffffffffff169050816000806101000a81548173ffffffffffffffffffffffffffffffffffffffff021916908373ffffffffffffffffffffffffffffffffffffffff1602179055508173ffffffffffffffffffffffffffffffffffffffff168173ffffffffffffffffffffffffffffffffffffffff167f8be0079c531659141344cd1fd0a4f28419497f9722a3daafe3b4186f6b6457e060405160405180910390a35050565b600073ffffffffffffffffffffffffffffffffffffffff82169050919050565b60006101888261015d565b9050919050565b6101988161017d565b82525050565b60006020820190506101b3600083018461018f565b92915050565b610cc3806101c86000396000f3fe6080604052600436106100865760003560e01c80638da5cb5b116100595780638da5cb5b14610133578063aadc1ac11461015e578063ab7b1c8914610187578063e1ec3c68146101a3578063f2fde38b146101e457610086565b806334d9289e1461008b57806342edceac146100b6578063553beb05146100df578063715018a61461011c575b600080fd5b34801561009757600080fd5b506100a061020d565b6040516100ad919061083e565b60405180910390f35b3480156100c257600080fd5b506100dd60048036038101906100d891906108bc565b610213565b005b3480156100eb57600080fd5b506101066004803603810190610101919061094b565b61025f565b604051610113919061083e565b60405180910390f35b34801561012857600080fd5b50610131610362565b005b34801561013f57600080fd5b50610148610376565b60405161015591906109ad565b60405180910390f35b34801561016a57600080fd5b50610185600480360381019061018091906109c8565b61039f565b005b6101a1600480360381019061019c91906109c8565b610406565b005b3480156101af57600080fd5b506101ca60048036038101906101c591906109c8565b6105fc565b6040516101db959493929190610a1f565b60405180910390f35b3480156101f057600080fd5b5061020b600480360381019061020691906108bc565b61064c565b005b60035481565b61021b6106d2565b80600160006101000a81548173ffffffffffffffffffffffffffffffffffffffff021916908373ffffffffffffffffffffffffffffffffffffffff16021790555050565b60006003600081548092919061027490610aa1565b91905055506040518060a001604052808581526020018481526020018381526020016000151581526020016000151581525060026000600354815260200190815260200160002060008201518160000155602082015181600101556040820151816002015560608201518160030160006101000a81548160ff02191690831515021790555060808201518160030160016101000a81548160ff0219169083151502179055509050506003547f45081e7b0d51f2f32c73acad33d06eb04f1c83c31a1b9bfd502470e629e0b63a8560405161034e9190610ae9565b60405180910390a260035490509392505050565b61036a6106d2565b6103746000610759565b565b60008060009054906101000a900473ffffffffffffffffffffffffffffffffffffffff16905090565b6103a76106d2565b60016002600083815260200190815260200160002060030160006101000a81548160ff021916908315150217905550807f073e754af3e7d644af8000094f3c23bc20ef9c40cc057bffa060b0230adf00f460405160405180910390a250565b60006002600083815260200190815260200160002090508060030160009054906101000a900460ff1661046e576040517f08c379a000000000000000000000000000000000000000000000000000000000815260040161046590610b61565b60405180910390fd5b8060030160019054906101000a900460ff16156104c0576040517f08c379a00000000000000000000000000000000000000000000000000000000081526004016104b790610bcd565b60405180910390fd5b6000816002015482600101546104d69190610bed565b90508034101561051b576040517f08c379a000000000000000000000000000000000000000000000000000000000815260040161051290610c6d565b60405180910390fd5b60018260030160016101000a81548160ff021916908315150217905550600160009054906101000a900473ffffffffffffffffffffffffffffffffffffffff1673ffffffffffffffffffffffffffffffffffffffff1663b214faa53484600001546040518363ffffffff1660e01b81526004016105989190610ae9565b6000604051808303818588803b1580156105b157600080fd5b505af11580156105c5573d6000803e3d6000fd5b5050505050827f9a7851747cd7ffb3fe0a32caf3da48b31f27cebe131267051640f8b72fc4718660405160405180910390a2505050565b60026020528060005260406000206000915090508060000154908060010154908060020154908060030160009054906101000a900460ff16908060030160019054906101000a900460ff16905085565b6106546106d2565b600073ffffffffffffffffffffffffffffffffffffffff168173ffffffffffffffffffffffffffffffffffffffff16036106c65760006040517f1e4fbdf70000000000000000000000000000000000000000000000000000000081526004016106bd91906109ad565b60405180910390fd5b6106cf81610759565b50565b6106da61081d565b73ffffffffffffffffffffffffffffffffffffffff166106f8610376565b73ffffffffffffffffffffffffffffffffffffffff16146107575761071b61081d565b6040517f118cdaa700000000000000000000000000000000000000000000000000000000815260040161074e91906109ad565b60405180910390fd5b565b60008060009054906101000a900473ffffffffffffffffffffffffffffffffffffffff169050816000806101000a81548173ffffffffffffffffffffffffffffffffffffffff021916908373ffffffffffffffffffffffffffffffffffffffff1602179055508173ffffffffffffffffffffffffffffffffffffffff168173ffffffffffffffffffffffffffffffffffffffff167f8be0079c531659141344cd1fd0a4f28419497f9722a3daafe3b4186f6b6457e060405160405180910390a35050565b600033905090565b6000819050919050565b61083881610825565b82525050565b6000602082019050610853600083018461082f565b92915050565b600080fd5b600073ffffffffffffffffffffffffffffffffffffffff82169050919050565b60006108898261085e565b9050919050565b6108998161087e565b81146108a457600080fd5b50565b6000813590506108b681610890565b92915050565b6000602082840312156108d2576108d1610859565b5b60006108e0848285016108a7565b91505092915050565b6000819050919050565b6108fc816108e9565b811461090757600080fd5b50565b600081359050610919816108f3565b92915050565b61092881610825565b811461093357600080fd5b50565b6000813590506109458161091f565b92915050565b60008060006060848603121561096457610963610859565b5b60006109728682870161090a565b935050602061098386828701610936565b925050604061099486828701610936565b9150509250925092565b6109a78161087e565b82525050565b60006020820190506109c2600083018461099e565b92915050565b6000602082840312156109de576109dd610859565b5b60006109ec84828501610936565b91505092915050565b6109fe816108e9565b82525050565b60008115159050919050565b610a1981610a04565b82525050565b600060a082019050610a3460008301886109f5565b610a41602083018761082f565b610a4e604083018661082f565b610a5b6060830185610a10565b610a686080830184610a10565b9695505050505050565b7f4e487b7100000000000000000000000000000000000000000000000000000000600052601160045260246000fd5b6000610aac82610825565b91507fffffffffffffffffffffffffffffffffffffffffffffffffffffffffffffffff8203610ade57610add610a72565b5b600182019050919050565b6000602082019050610afe60008301846109f5565b92915050565b600082825260208201905092915050565b7f4e6f7420617070726f7665640000000000000000000000000000000000000000600082015250565b6000610b4b600c83610b04565b9150610b5682610b15565b602082019050919050565b60006020820190508181036000830152610b7a81610b3e565b9050919050565b7f416c726561647920726570616964000000000000000000000000000000000000600082015250565b6000610bb7600e83610b04565b9150610bc282610b81565b602082019050919050565b60006020820190508181036000830152610be681610baa565b9050919050565b6000610bf882610825565b9150610c0383610825565b9250828201905080821115610c1b57610c1a610a72565b5b92915050565b7f496e73756666696369656e740000000000000000000000000000000000000000600082015250565b6000610c57600c83610b04565b9150610c6282610c21565b602082019050919050565b60006020820190508181036000830152610c8681610c4a565b905091905056fea2646970667358221220cc831f9945f0f5f7cfe3041f17f7908946f2417f9238e19fffd95376a37c21c964736f6c63430008140033",
  "linkReferences": {},
  "deployedLinkReferences": {}
}